:100000000C9434000C9449000C9449000C94490061
:100010000C9449000C9449000C9449000C9449003C
:100020000C9449000C9449000C9449000C9449002C
:100030000C9449000C9449000C9449000C9449001C
:100040000C9449000C9449000C9449000C9449000C
:100050000C9449000C9449000C9449000C944900FC
:100060000C9449000C94490011241FBECFEFD8E036
:10007000DEBFCDBF11E0A0E0B1E0E2E1F3E202C0FB
:1000800005900D92AE36B107D9F70E94B8100C94C6
:1000900087110C940000EF92FF920F931F937B0146
:1000A0008C0120E030E040E05FE40E944B038823B5
:1000B0008CF0C801B70120E030E040E05FE40E942E
:1000C000C3010E94AB039B01AC0120503040404073
:1000D000504806C0C801B7010E94AB039B01AC01A8
:1000E000B901CA011F910F91FF90EF900895A0E010
:1000F000B0E0EDE7F0E00C940B11DC012B01FA010C
:100100009C91923008F439C1EB018881823008F467
:1001100033C1943069F4843009F02FC111969C9159
:1001200011978981981709F428C1A8E2B1E025C187
:10013000843009F421C18230A9F4923009F01DC144
:100140009A01AD0188E0EA010990AE01E901099246
:100150009E018150C1F7E201898111969C9189230A
:10016000818308C1923009F407C112962D903C900A
:100170001397EB018A819B811496AD90BD90CD9031
:10018000DC901797EC80FD800E811F819101281B68
:10019000390BB90137FF04C066277727621B730B41
:1001A000603271050CF061C0121613066CF5370150
:1001B0004801062E04C096948794779467940A9415
:1001C000D2F721E030E040E050E004C0220F331FBE
:1001D000441F551F6A95D2F721503040404050408F
:1001E0002E213F2140235123211531054105510581
:1001F00021F021E030E040E050E079018A01E6287A
:10020000F728082919293CC0232BD1F1260E371EC7
:1002100035014601062E04C096948794779467941E
:100220000A94D2F721E030E040E050E004C0220F11
:10023000331F441F551F6A95D2F72150304040406C
:1002400050402A213B214C215D21211531054105DA
:10025000510521F021E030E040E050E059016A0111
:10026000A628B728C828D9280BC0821593052CF0DA
:100270001C01AA24BB24650103C0EE24FF248701CE
:1002800011969C91D20111968C91981709F445C052
:10029000992339F0A80197012A193B094C095D09F6
:1002A00006C0A60195012E193F09400B510B57FDC1
:1002B00008C0118233822282248335834683578388
:1002C0001DC081E081833382228288279927DC0147
:1002D000821B930BA40BB50B84839583A683B783F2
:1002E0000DC0220F331F441F551F248335834683BF
:1002F00057838281938101979383828324813581FF
:1003000046815781DA01C9010197A109B1098F5FBF
:100310009F4FAF4FBF4328F30BC09183338222829C
:10032000EA0CFB1C0C1D1D1DE482F582068317835D
:1003300083E08083248135814681578157FF1AC02D
:10034000C901AA2797FDA095BA2F81709070A0705F
:10035000B0705695479537952795822B932BA42BF4
:10036000B52B84839583A683B7838281938101967D
:1003700093838283DF0101C0D201CD01CDB7DEB707
:10038000E2E10C942711A0E2B0E0E9ECF1E00C947A
:10039000171169837A838B839C832D833E834F83DC
:1003A0005887E9E0EE2EF12CEC0EFD1ECE010196F1
:1003B000B7010E94D4048E010F5E1F4FCE01059637
:1003C000B8010E94D4048A8991E089278A8BC701E9
:1003D000B801AE01475E5F4F0E9477000E94FF03A5
:1003E000A096E6E00C943311A0E2B0E0EAEFF1E071
:1003F0000C94171169837A838B839C832D833E83AE
:100400004F835887F9E0EF2EF12CEC0EFD1ECE0144
:100410000196B7010E94D4048E010F5E1F4FCE01DA
:100420000596B8010E94D404C701B801AE01475E29
:100430005F4F0E9477000E94FF03A096E6E00C94B5
:100440003311A0E2B0E0E7E2F2E00C940B11698313
:100450007A838B839C832D833E834F835887CE0181
:100460000196BE01675F7F4F0E94D404CE010596BE
:10047000BE016F5E7F4F0E94D4049985923088F050
:1004800089898230C8F0943019F4823051F404C064
:10049000843029F4923081F488E291E0C6C0923031
:1004A00049F420E09A858A89981321E02A87CE01B1
:1004B0000996BBC0823049F420E09A858A89981356
:1004C00021E02A8BCE014196B0C02D843E844F841A
:1004D00058886D887E888F88988CEE24FF24870149
:1004E000AA24BB24650140E050E060E070E0E0E059
:1004F000F0E0C10181709070892BE9F0E60CF71CE7
:10050000081D191D9A01AB012A0D3B1D4C1D5D1DD7
:1005100080E090E0A0E0B0E0E614F70408051905DB
:1005200020F481E090E0A0E0B0E0BA01A901480F1A
:10053000591F6A1F7B1FAA0CBB1CCC1CDD1C97FE1D
:1005400008C081E090E0A0E0B0E0A82AB92ACA2A59
:10055000DB2A3196E032F10549F0660C771C881CE5
:10056000991C5694479437942794C3CFFA85EA8907
:100570002B893C898B859C85280F391F2E5F3F4F27
:1005800017C0CA0181709070892B61F0169507958C
:10059000F794E79480E090E0A0E0B0E8E82AF92A38
:1005A0000A2B1B2B76956795579547952F5F3F4FE5
:1005B00077FDE7CF0CC0440F551F661F771F17FD4F
:1005C0004160EE0CFF1C001F111F215030404030D5
:1005D00090E0590790E0690790E4790760F32B8F6A
:1005E0003C8FDB01CA018F779070A070B0708034AF
:1005F0009105A105B10561F447FD0AC0E114F104BC
:100600000105110529F0405C5F4F6F4F7F4F407827
:100610001A8EFE1711F081E08A8F4D8F5E8F6F8FDB
:1006200078A383E0898FCE0149960E94FF03A096AC
:10063000E2E10C942711A8E1B0E0E1E2F3E00C94D0
:10064000171169837A838B839C832D833E834F8329
:10065000588789E0E82EF12CEC0EFD1ECE010196A4
:10066000B7010E94D4048E010F5E1F4FCE01059684
:10067000B8010E94D4048985823040F08989823093
:1006800028F0C701B8010E944C0501C08FEF6896A1
:10069000E6E00C943311A8E1B0E0E1E5F3E00C945E
:1006A000171169837A838B839C832D833E834F83C9
:1006B000588789E0E82EF12CEC0EFD1ECE01019644
:1006C000B7010E94D4048E010F5E1F4FCE01059624
:1006D000B8010E94D4048985823040F08989823033
:1006E00028F0C701B8010E944C0501C08FEF689641
:1006F000E6E00C943311A8E1B0E0E1E8F3E00C94FB
:10070000171169837A838B839C832D833E834F8368
:10071000588789E0E82EF12CEC0EFD1ECE010196E3
:10072000B7010E94D4048E010F5E1F4FCE010596C3
:10073000B8010E94D4048985823040F089898230D2
:1007400028F0C701B8010E944C0501C081E06896FD
:10075000E6E00C943311ACE0B0E0E1EBF3E00C9494
:100760001B1169837A838B839C83CE010196BE0122
:100770006B5F7F4F0E94D4048D81823061F18230A3
:1007800050F1843021F48E81882351F12EC02F81C5
:10079000388537FD20C06E812F3131051CF066236E
:1007A000F9F023C08EE190E0821B930B29853A85F6
:1007B0004B855C8504C056954795379527958A9556
:1007C000D2F76623B1F050954095309521953F4F73
:1007D0004F4F5F4F0EC020E030E040E050E009C0D6
:1007E0002FEF3FEF4FEF5FE704C020E030E040E045
:1007F00050E8B901CA012C96E2E00C943711DF925F
:10080000EF92FF920F931F93FC01E480F580068125
:100810001781D1808081823048F480E090E0A0E1AF
:10082000B0E0E82AF92A0A2B1B2BA5C0843009F472
:100830009FC0823021F4EE24FF24870105C0E1141B
:10084000F1040105110519F4E0E0F0E096C06281C1
:1008500073819FEF623879070CF05BC022E83FEFAD
:10086000261B370B2A3131052CF020E030E040E028
:1008700050E02AC0B801A701022E04C07695679502
:10088000579547950A94D2F781E090E0A0E0B0E058
:1008900004C0880F991FAA1FBB1F2A95D2F7019782
:1008A000A109B1098E219F21A023B1230097A105A1
:1008B000B10521F081E090E0A0E0B0E09A01AB0149
:1008C000282B392B4A2B5B2BDA01C9018F779070CB
:1008D000A070B07080349105A105B10539F427FFEF
:1008E00009C0205C3F4F4F4F5F4F04C0215C3F4F1A
:1008F0004F4F5F4FE0E0F0E02030A0E03A07A0E08B
:100900004A07A0E45A0710F0E1E0F0E079018A011B
:1009100027C06038710564F5FB01E158FF4FD8012D
:10092000C7018F779070A070B07080349105A105D9
:10093000B10539F4E7FE0DC080E490E0A0E0B0E03E
:1009400004C08FE390E0A0E0B0E0E80EF91E0A1FBB
:100950001B1F17FF05C016950795F794E79431966E
:1009600087E016950795F794E7948A95D1F705C027
:10097000EE24FF248701EFEFF0E06E2F67956627E6
:100980006795902F9F77D794DD24D7948E2F8695E7
:10099000492F462B582F5D29B701CA011F910F918E
:1009A000FF90EF90DF900895FC01DB0140815181C1
:1009B0002281622F6F7770E0221F2227221F9381EE
:1009C000892F880F822B282F30E0991F9927991F94
:1009D00011969C93119721153105A9F541155105E3
:1009E0006105710511F482E037C082E89FEF13962C
:1009F0009C938E9312979A01AB0167E0220F331FED
:100A0000441F551F6A95D1F783E08C930DC0220FC8
:100A1000331F441F551F12968D919C911397019778
:100A200013969C938E931297203080E0380780E0D5
:100A3000480780E4580758F314962D933D934D933F
:100A40005C93179708952F3F310579F441155105AF
:100A50006105710519F484E08C93089564FF03C067
:100A600081E08C9312C01C9210C02F573040139617
:100A70003C932E93129783E08C9387E0440F551F8D
:100A8000661F771F8A95D1F7706414964D935D9316
:100A90006D937C93179708951F93DC01FB019C9144
:100AA000923008F447C08081823008F443C094300B
:100AB00051F411961C91843099F58181682F70E072
:100AC000611B71093FC0843021F0923031F48230D3
:100AD000B9F18181882389F12DC011961C9111975C
:100AE0008230F1F081811817D9F412962D913C9142
:100AF0001397828193818217930794F028173907FF
:100B0000BCF014968D919D910D90BC91A02D2481E7
:100B1000358146815781281739074A075B0718F442
:100B2000112341F00AC082179307A407B50740F4C8
:100B3000112319F061E070E005C06FEF7FEF02C094
:100B400060E070E0CB011F910895DF93CF9300D058
:100B5000CDB7DEB71A82198253C029813A81C90103
:100B6000880F991F820F931FFC01E05DFE4F50819B
:100B700029813A81C901880F991F820F931FFC01B7
:100B8000EF5CFE4F408129813A81C901880F991F8E
:100B9000820F931FFC01EE5CFE4F9081852F642F26
:100BA000492F0E94890729813A81C901880F991F1D
:100BB000820F931FFC01EE5CFE4F80818130D9F4DF
:100BC00029813A81C901880F991F820F931FFC0167
:100BD000E05DFE4F408129813A81C901880F991F4C
:100BE000820F931FFC01EF5CFE4F9081842F692FD1
:100BF00040E00E940F0689819A8101969A83898339
:100C000080916C01282F30E089819A8182179307A7
:100C10000CF4A3CF0F900F90CF91DF910895DF9345
:100C2000CF9300D000D00F92CDB7DEB789836A830F
:100C30004B838981282F30E03D832C838C819D81DB
:100C400081309105B9F12C813D812230310509F4C3
:100C50005DC08C819D81009709F083C08B818823C2
:100C6000A9F4A5E2B0E0E5E2F0E08081482F8A81B6
:100C7000282F30E081E090E0022E02C0880F991FFB
:100C80000A94E2F7809584238C936BC0A5E2B0E0D0
:100C9000E5E2F0E08081482F8A81282F30E081E072
:100CA00090E0022E02C0880F991F0A94E2F7842B6D
:100CB0008C9357C08B818823A9F4A8E2B0E0E8E2C6
:100CC000F0E08081482F8A81282F30E081E090E099
:100CD000022E02C0880F991F0A94E2F780958423A0
:100CE0008C933FC0A8E2B0E0E8E2F0E08081482FBA
:100CF0008A81282F30E081E090E0022E02C0880F28
:100D0000991F0A94E2F7842B8C932BC08B81882344
:100D1000A9F4ABE2B0E0EBE2F0E08081482F8A81F9
:100D2000282F30E081E090E0022E02C0880F991F4A
:100D30000A94E2F7809584238C9313C0ABE2B0E071
:100D4000EBE2F0E08081482F8A81282F30E081E0BB
:100D500090E0022E02C0880F991F0A94E2F7842BBC
:100D60008C930F900F900F900F900F90CF91DF9179
:100D70000895DF93CF9300D000D00F92CDB7DEB7A8
:100D80008A836B8319828A81282F30E03D832C83EC
:100D90004C815D814130510519F18C819D818230FA
:100DA0009105B1F12C813D812115310509F047C034
:100DB000E3E2F0E08081282F30E08B81882F90E003
:100DC000A90102C0559547958A95E2F7CA0181703D
:100DD0009070882319F081E0898331C019822FC077
:100DE000E6E2F0E08081282F30E08B81882F90E0D0
:100DF000A90102C0559547958A95E2F7CA0181700D
:100E00009070882319F081E0898319C0198217C076
:100E1000E9E2F0E08081282F30E08B81882F90E09C
:100E2000A90102C0559547958A95E2F7CA018170DC
:100E30009070882319F081E0898301C0198289812B
:100E40000F900F900F900F900F90CF91DF9108951A
:100E5000DF93CF9300D000D0CDB7DEB789836A830C
:100E60008981282F30E03C832B838B819C818130CA
:100E7000910571F02B813C812230310571F08B811D
:100E80009C81009771F4E5E2F0E08A81808309C0DB
:100E9000E8E2F0E08A81808304C0EBE2F0E08A813E
:100EA00080830F900F900F900F90CF91DF91089556
:100EB000DF93CF9300D000D0CDB7DEB78A831982FD
:100EC0008A81282F30E03C832B838B819C81813069
:100ED000910571F02B813C812230310571F08B81BD
:100EE0009C81009771F4E3E2F0E08081898309C07E
:100EF000E6E2F0E08081898304C0E9E2F0E08081ED
:100F0000898389810F900F900F900F90CF91DF917F
:100F10000895DF93CF9300D000D00F92CDB7DEB706
:100F200089836A834B838981282F30E03D832C831A
:100F30008C819D8181309105B9F12C813D812230D8
:100F4000310509F45DC08C819D81009709F083C053
:100F50008B818130A1F4A4E2B0E0E4E2F0E0808192
:100F6000482F8A81282F30E081E090E0022E02C0D5
:100F7000880F991F0A94E2F7842B8C936CC0A4E22B
:100F8000B0E0E4E2F0E08081482F8A81282F30E051
:100F900081E090E0022E02C0880F991F0A94E2F7C8
:100FA000809584238C9357C08B818130A1F4A7E274
:100FB000B0E0E7E2F0E08081482F8A81282F30E01E
:100FC00081E090E0022E02C0880F991F0A94E2F798
:100FD000842B8C9340C0A7E2B0E0E7E2F0E0808190
:100FE000482F8A81282F30E081E090E0022E02C055
:100FF000880F991F0A94E2F7809584238C932BC065
:101000008B818130A1F4AAE2B0E0EAE2F0E08081D5
:10101000482F8A81282F30E081E090E0022E02C024
:10102000880F991F0A94E2F7842B8C9314C0AAE2CC
:10103000B0E0EAE2F0E08081482F8A81282F30E09A
:1010400081E090E0022E02C0880F991F0A94E2F717
:10105000809584238C930F900F900F900F900F909A
:10106000CF91DF9108950F931F93DF93CF93CDB767
:10107000DEB7C256D0400FB6F894DEBF0FBECDBF6C
:10108000FE01E15AFF4F80E090E0A8ECB2E48083DB
:101090009183A283B3838E01055A1F4FFE01E15A4B
:1010A000FF4F608171818281938120E030E04AE7C7
:1010B00055E40E942102DC01CB01F8018083918379
:1010C000A283B383FE01E55AFF4F60817181828163
:1010D000938120E030E040E85FE30E947B038823B7
:1010E00044F4FE01E75AFF4F81E090E09183808352
:1010F00064C0FE01E55AFF4F608171818281938156
:1011000020E03FEF4FE757E40E941B0318160CF056
:1011100043C0FE01E15AFF4F60817181828193815A
:1011200020E030E040E251E40E942102DC01CB01EA
:101130008E01075A1F4FBC01CD010E944B00DC01FC
:10114000CB01F801918380831FC0FE01E95AFF4F54
:1011500080E991E091838083FE01E95AFF4F80810D
:1011600091810197F1F7FE01E95AFF4F9183808346
:10117000DE01A75ABF4FFE01E75AFF4F80819181E0
:10118000019711969C938E93FE01E75AFF4F808141
:1011900091810097D1F627C08E01075A1F4FFE019B
:1011A000E55AFF4F60817181828193810E944B00DB
:1011B000DC01CB01F80191838083DE01AB5ABF4F84
:1011C000FE01E75AFF4F808191818D939C93FE0130
:1011D000EB5AFF4F808191810197F1F7FE01EB5AA5
:1011E000FF4F9183808380E30E94110CFE01EF5A30
:1011F000FF4F80E090E0A0EAB0E480839183A28377
:10120000B3838E01035B1F4FFE01EF5AFF4F6081D6
:1012100071818281938120E030E04AE755E40E94A9
:101220002102DC01CB01F80180839183A283B38387
:10123000FE01E35BFF4F608171818281938120E039
:1012400030E040E85FE30E947B03882344F4FE0122
:10125000E55BFF4F81E090E09183808364C0FE01F5
:10126000E35BFF4F608171818281938120E03FEFDA
:101270004FE757E40E941B0318160CF043C0FE0111
:10128000EF5AFF4F608171818281938120E030E0CD
:1012900040E251E40E942102DC01CB018E01055B9A
:1012A0001F4FBC01CD010E944B00DC01CB01F801B6
:1012B000918380831FC0FE01E75BFF4F80E991E0CF
:1012C00091838083FE01E75BFF4F808191810197CD
:1012D000F1F7FE01E75BFF4F91838083DE01A55BA1
:1012E000BF4FFE01E55BFF4F808191810197119611
:1012F0009C938E93FE01E55BFF4F80819181009767
:10130000D1F627C08E01055B1F4FFE01E35BFF4F47
:1013100060817181828193810E944B00DC01CB014D
:10132000F80191838083DE01A95BBF4FFE01E55B7D
:10133000FF4F808191818D939C93FE01E95BFF4F6C
:10134000808191810197F1F7FE01E95BFF4F918365
:10135000808380E30E94110CFE01ED5BFF4F80E073
:1013600090E0A0E8BFE380839183A283B3838E01E2
:10137000015C1F4FFE01ED5BFF4F60817181828137
:10138000938120E030E04AE755E40E942102DC012D
:10139000CB01F80180839183A283B383FE01FF9682
:1013A000608171818281938120E030E040E85FE3D9
:1013B0000E947B0388232CF481E090E09EAF8DAFE8
:1013C00046C0FE01FF96608171818281938120E099
:1013D0003FEF4FE757E40E941B03181664F5FE0128
:1013E000ED5BFF4F608171818281938120E030E06D
:1013F00040E251E40E942102DC01CB01BC01CD019D
:101400000E944B00DC01CB019EAF8DAF0FC080E985
:1014100091E09CAF8BAF8BAD9CAD0197F1F79CAF8A
:101420008BAF8DAD9EAD01979EAF8DAF8DAD9EAD57
:10143000009769F716C0FE01FF9660817181828175
:1014400093810E944B00DC01CB019EAF8DAF8DAD2F
:101450009EAD9AAF89AF89AD9AAD0197F1F79AAF7A
:1014600089AF80E30E94110C80E090E0A0E8BFE328
:101470008DAB9EABAFABB8AF6DA97EA98FA998AD70
:1014800020E030E04AE755E40E942102DC01CB0174
:1014900089AB9AABABABBCAB69A97AA98BA99CA968
:1014A00020E030E040E85FE30E947B0388232CF4D7
:1014B00081E090E098AB8FA73FC069A97AA98BA97A
:1014C0009CA920E03FEF4FE757E40E941B0318164A
:1014D0004CF56DA97EA98FA998AD20E030E040E2DF
:1014E00051E40E942102DC01CB01BC01CD010E942C
:1014F0004B00DC01CB0198AB8FA70FC080E991E0D6
:101500009EA78DA78DA59EA50197F1F79EA78DA7F4
:101510008FA598A9019798AB8FA78FA598A9009739
:1015200069F714C069A97AA98BA99CA90E944B00EC
:10153000DC01CB0198AB8FA78FA598A99CA78BA79F
:101540008BA59CA50197F1F79CA78BA788E30E9428
:10155000110C80E090E0A0E8BFE38FA398A7A9A7B3
:10156000BAA76FA178A589A59AA520E030E04AE73F
:1015700055E40E942102DC01CB018BA39CA3ADA307
:10158000BEA36BA17CA18DA19EA120E030E040E82C
:101590005FE30E947B0388232CF481E090E09AA310
:1015A00089A33FC06BA17CA18DA19EA120E03FEF4C
:1015B0004FE757E40E941B0318164CF56FA178A55E
:1015C00089A59AA520E030E040E251E40E94210282
:1015D000DC01CB01BC01CD010E944B00DC01CB0141
:1015E0009AA389A30FC080E991E098A38F8F8F8D74
:1015F00098A10197F1F798A38F8F89A19AA10197DC
:101600009AA389A389A19AA1009769F714C06BA135
:101610007CA18DA19EA10E944B00DC01CB019AA36D
:1016200089A389A19AA19E8F8D8F8D8D9E8D019703
:10163000F1F79E8F8D8F8CE00E94110C80E090E07E
:10164000A0E8BFE3898F9A8FAB8FBC8F698D7A8DAD
:101650008B8D9C8D20E030E04AE755E40E9421020A
:10166000DC01CB018D8B9E8BAF8BB88F6D897E8912
:101670008F89988D20E030E040E85FE30E947B0393
:1016800088232CF481E090E09C8B8B8B3FC06D898C
:101690007E898F89988D20E03FEF4FE757E40E94C5
:1016A0001B0318164CF5698D7A8D8B8D9C8D20E06F
:1016B00030E040E251E40E942102DC01CB01BC0198
:1016C000CD010E944B00DC01CB019C8B8B8B0FC0AA
:1016D00080E991E09A8B898B89899A890197F1F742
:1016E0009A8B898B8B899C8901979C8B8B8B8B899F
:1016F0009C89009769F714C06D897E898F89988DC0
:101700000E944B00DC01CB019C8B8B8B8B899C89CD
:10171000988B8F878F8598890197F1F7988B8F87A2
:1017200081E00E94110C80E090E0A0EAB0E48B8799
:101730009C87AD87BE876B857C858D859E8520E0E7
:1017400030E04AE755E40E942102DC01CB018F839F
:101750009887A987BA876F81788589859A8520E0DF
:1017600030E040E85FE30E947B0388232CF481E0B3
:1017700090E09E838D833FC06F81788589859A85AF
:1017800020E03FEF4FE757E40E941B0318164CF58B
:101790006B857C858D859E8520E030E040E251E4BC
:1017A0000E942102DC01CB01BC01CD010E944B0053
:1017B000DC01CB019E838D830FC080E991E09C8387
:1017C0008B838B819C810197F1F79C838B838D8127
:1017D0009E8101979E838D838D819E81009769F7FD
:1017E00014C06F81788589859A850E944B00DC0141
:1017F000CB019E838D838D819E819A83898389818C
:101800009A810197F1F79A838983CE59DF4F0FB6FA
:10181000F894DEBF0FBECDBFCF91DF911F910F9126
:101820000895DF93CF93CDB7DEB7E9970FB6F8945D
:10183000DEBF0FBECDBF89AF80E062E040E00E9416
:101840000F0680E061E040E00E940F0680E090E03B
:10185000A0E8BFE38DAB9EABAFABB8AF6DA97EA9DF
:101860008FA998AD20E030E04AE755E40E942102BC
:10187000DC01CB0189AB9AABABABBCAB69A97AA954
:101880008BA99CA920E030E040E85FE30E947B0345
:1018900088232CF481E090E098AB8FA73FC069A922
:1018A0007AA98BA99CA920E03FEF4FE757E40E945B
:1018B0001B0318164CF56DA97EA98FA998AD20E0E1
:1018C00030E040E251E40E942102DC01CB01BC0186
:1018D000CD010E944B00DC01CB0198AB8FA70FC05C
:1018E00080E991E09EA78DA78DA59EA50197F1F7B0
:1018F0009EA78DA78FA598A9019798AB8FA78FA5B5
:1019000098A9009769F714C069A97AA98BA99CA91D
:101910000E944B00DC01CB0198AB8FA78FA598A943
:101920009CA78BA78BA59CA50197F1F79CA78BA7DC
:1019300080E060E041E00E940F0680E090E0A0E8D7
:10194000BFE38FA398A7A9A7BAA76FA178A589A578
:101950009AA520E030E04AE755E40E942102DC012C
:10196000CB018BA39CA3ADA3BEA36BA17CA18DA136
:101970009EA120E030E040E85FE30E947B038823E3
:101980002CF481E090E09AA389A33FC06BA17CA1D5
:101990008DA19EA120E03FEF4FE757E40E941B037B
:1019A00018164CF56FA178A589A59AA520E030E01E
:1019B00040E251E40E942102DC01CB01BC01CD01D7
:1019C0000E944B00DC01CB019AA389A30FC080E9E0
:1019D00091E098A38F8F8F8D98A10197F1F798A32D
:1019E0008F8F89A19AA101979AA389A389A19AA10E
:1019F000009769F714C06BA17CA18DA19EA10E94E4
:101A00004B00DC01CB019AA389A389A19AA19E8FE7
:101A10008D8F8D8D9E8D0197F1F79E8F8D8F82E03A
:101A200069AD0E94280780E090E0A0E8BFE3898FBD
:101A30009A8FAB8FBC8F698D7A8D8B8D9C8D20E0BA
:101A400030E04AE755E40E942102DC01CB018D8B96
:101A50009E8BAF8BB88F6D897E898F89988D20E0A2
:101A600030E040E85FE30E947B0388232CF481E0B0
:101A700090E09C8B8B8B3FC06D897E898F89988D80
:101A800020E03FEF4FE757E40E941B0318164CF588
:101A9000698D7A8D8B8D9C8D20E030E040E251E4A1
:101AA0000E942102DC01CB01BC01CD010E944B0050
:101AB000DC01CB019C8B8B8B0FC080E991E09A8B72
:101AC000898B89899A890197F1F79A8B898B8B8900
:101AD0009C8901979C8B8B8B8B899C89009769F7DC
:101AE00014C06D897E898F89988D0E944B00DC011E
:101AF000CB019C8B8B8B8B899C89988B8F878F8557
:101B000098890197F1F7988B8F8780E060E040E03B
:101B10000E940F0680E090E0A0E8BFE38B879C87DF
:101B2000AD87BE876B857C858D859E8520E030E006
:101B30004AE755E40E942102DC01CB018F8398879C
:101B4000A987BA876F81788589859A8520E030E0FA
:101B500040E85FE30E947B0388232CF481E090E05F
:101B60009E838D833FC06F81788589859A8520E02B
:101B70003FEF4FE757E40E941B0318164CF56B85A7
:101B80007C858D859E8520E030E040E251E40E9416
:101B90002102DC01CB01BC01CD010E944B00DC0124
:101BA000CB019E838D830FC080E991E09C838B8362
:101BB0008B819C810197F1F79C838B838D819E8122
:101BC00001979E838D838D819E81009769F714C054
:101BD0006F81788589859A850E944B00DC01CB0155
:101BE0009E838D838D819E819A83898389819A8149
:101BF0000197F1F79A838983E9960FB6F894DEBFCF
:101C00000FBECDBFCF91DF910895DF93CF93CDB7B6
:101C1000DEB7E9970FB6F894DEBF0FBECDBF89AF30
:101C200080E062E041E00E940F0680E061E040E079
:101C30000E940F0680E090E0A0E8BFE38DAB9EAB72
:101C4000AFABB8AF6DA97EA98FA998AD20E030E009
:101C50004AE755E40E942102DC01CB0189AB9AAB33
:101C6000ABABBCAB69A97AA98BA99CA920E030E0F9
:101C700040E85FE30E947B0388232CF481E090E03E
:101C800098AB8FA73FC069A97AA98BA99CA920E02E
:101C90003FEF4FE757E40E941B0318164CF56DA960
:101CA0007EA98FA998AD20E030E040E251E40E9487
:101CB0002102DC01CB01BC01CD010E944B00DC0103
:101CC000CB0198AB8FA70FC080E991E09EA78DA7AD
:101CD0008DA59EA50197F1F79EA78DA78FA598A921
:101CE000019798AB8FA78FA598A9009769F714C0A3
:101CF00069A97AA98BA99CA90E944B00DC01CB01A0
:101D000098AB8FA78FA598A99CA78BA78BA59CA5FF
:101D10000197F1F79CA78BA780E060E041E00E946B
:101D20000F0680E090E0A0E8BFE38FA398A7A9A7E3
:101D3000BAA76FA178A589A59AA520E030E04AE767
:101D400055E40E942102DC01CB018BA39CA3ADA32F
:101D5000BEA36BA17CA18DA19EA120E030E040E854
:101D60005FE30E947B0388232CF481E090E09AA338
:101D700089A33FC06BA17CA18DA19EA120E03FEF74
:101D80004FE757E40E941B0318164CF56FA178A586
:101D900089A59AA520E030E040E251E40E942102AA
:101DA000DC01CB01BC01CD010E944B00DC01CB0169
:101DB0009AA389A30FC080E991E098A38F8F8F8D9C
:101DC00098A10197F1F798A38F8F89A19AA1019704
:101DD0009AA389A389A19AA1009769F714C06BA15E
:101DE0007CA18DA19EA10E944B00DC01CB019AA396
:101DF00089A389A19AA19E8F8D8F8D8D9E8D01972C
:101E0000F1F79E8F8D8F82E069AD0E94280780E0F8
:101E100090E0A0E8BFE3898F9A8FAB8FBC8F698D6C
:101E20007A8D8B8D9C8D20E030E04AE755E40E944E
:101E30002102DC01CB018D8B9E8BAF8BB88F6D891E
:101E40007E898F89988D20E030E040E85FE30E9432
:101E50007B0388232CF481E090E09C8B8B8B3FC02C
:101E60006D897E898F89988D20E03FEF4FE757E499
:101E70000E941B0318164CF5698D7A8D8B8D9C8DF5
:101E800020E030E040E251E40E942102DC01CB017D
:101E9000BC01CD010E944B00DC01CB019C8B8B8BE4
:101EA0000FC080E991E09A8B898B89899A89019783
:101EB000F1F79A8B898B8B899C8901979C8B8B8BF3
:101EC0008B899C89009769F714C06D897E898F89F9
:101ED000988D0E944B00DC01CB019C8B8B8B8B89F6
:101EE0009C89988B8F878F8598890197F1F7988BBC
:101EF0008F8780E060E040E00E940F0680E090E085
:101F0000A0E8BFE38B879C87AD87BE876B857C8508
:101F10008D859E8520E030E04AE755E40E9421024D
:101F2000DC01CB018F839887A987BA876F81788579
:101F300089859A8520E030E040E85FE30E947B03DA
:101F400088232CF481E090E09E838D833FC06F81D5
:101F5000788589859A8520E03FEF4FE757E40E9416
:101F60001B0318164CF56B857C858D859E8520E0BE
:101F700030E040E251E40E942102DC01CB01BC01CF
:101F8000CD010E944B00DC01CB019E838D830FC0ED
:101F900080E991E09C838B838B819C810197F1F791
:101FA0009C838B838D819E8101979E838D838D8100
:101FB0009E81009769F714C06F81788589859A851D
:101FC0000E944B00DC01CB019E838D838D819E811D
:101FD0009A83898389819A810197F1F79A8389830A
:101FE000E9960FB6F894DEBF0FBECDBFCF91DF915B
:101FF0000895DF93CF9300D00F92CDB7DEB79B83C8
:102000008A8319820EC08981282F30E08A819B81C2
:10201000FC01E20FF31F80810E94050E89818F5F12
:1020200089838981282F30E08A819B81FC01E20F1E
:10203000F31F8081882339F70F900F900F90CF9175
:10204000DF910895DF93CF9300D000D00F92CDB7EA
:10205000DEB78A836B8319828A81843018F48B817E
:10206000883238F00E948B1080E091E00E94F90FD6
:1020700031C08A81282F30E03D832C838C819D8163
:1020800081309105C1F02C813D81223031052CF445
:102090008C819D81009761F01DC02C813D81223093
:1020A000310569F08C819D818330910561F012C00A
:1020B0008B8189830BC08B81805C898307C08B8176
:1020C0008C5E898303C08B818C5A89838981806867
:1020D0000E94110C0F900F900F900F900F90CF91C6
:1020E000DF910895DF93CF9300D000D0CDB7DEB756
:1020F0009A8389836B834C838B816C810E9422102D
:1021000089819A810E94F90F0F900F900F900F9084
:10211000CF91DF910895DF93CF93CDB7DEB781E004
:102120000E94110CCF91DF910895DF93CF93CDB72B
:10213000DEB761970FB6F894DEBF0FBECDBF898BB7
:102140008989882F90E09E012F5F3F4FB9014AE0B7
:1021500050E00E944211CE0101960E94F90F619653
:102160000FB6F894DEBF0FBECDBFCF91DF910895BB
:10217000DF93CF93CDB7DEB7A1970FB6F894DEBF4C
:102180000FBECDBF0E94A5050E943308CE01019667
:10219000998F888FE1E1F1E0FB8FEA8FF0E1FC8F0E
:1021A000EA8DFB8D00808A8D9B8D01969B8F8A8F97
:1021B000E88DF98D0082888D998D0196998F888F91
:1021C0009C8D91509C8FEC8DEE2351F7CE01419662
:1021D0009E8F8D8FE1E2F1E0F8A3EF8FF7E0F9A396
:1021E000EF8DF8A100808F8D98A1019698A38F8F15
:1021F000ED8DFE8D00828D8D9E8D01969E8F8D8F33
:1022000099A1915099A3E9A1EE2351F7CE014196EE
:102210000E94F90FFFCF2F923F924F925F926F92E1
:102220007F928F929F92AF92BF92CF92DF92EF9266
:10223000FF920F931F93CF93DF93CDB7DEB7CA1BE7
:10224000DB0B0FB6F894DEBF0FBECDBF09942A8812
:10225000398848885F846E847D848C849B84AA84BA
:10226000B984C884DF80EE80FD800C811B81AA8147
:10227000B981CE0FD11D0FB6F894DEBF0FBECDBF12
:10228000ED010895FB019F01E8944230C4F045320E
:10229000B4F44A3029F497FB1EF4909581959F4F32
:1022A000642F77270E947311805D8A330CF0895D5B
:1022B0008193CB010097A1F716F45DE25193108250
:1022C000C9010C946311DC01FC01672F7191772324
:1022D000E1F7329704C07C916D9370836291AE17E1
:1022E000BF07C8F30895AA1BBB1B51E107C0AA1F73
:1022F000BB1FA617B70710F0A61BB70B881F991FA7
:102300005A95A9F780959095BC01CD010895F89450
:02231000FFCFFD
:10231200455252204D4F5620435552534F52202181
:102322000049616D20416264656C7261686D616E25
:102332000048656C6C6F2100000000000000000086
:10234200000001000101000201000301000401007C
:102352000501010001010101010201010301010462
:102362000101050102000102010102020102030151
:0E237200020401020501020601020701140027
:00000001FF
